{
  "_format": "hh-sol-artifact-1",
  "contractName": "Lock",
  "sourceName": "contracts/Lock.sol",
  "abi": [
    {
      "inputs": [
        {
          "internalType": "address",
          "name": "_id",
          "type": "address"
        },
        {
          "internalType": "string",
          "name": "_nom",
          "type": "string"
        },
        {
          "internalType": "string",
          "name": "_prenom",
          "type": "string"
        },
        {
          "internalType": "string",
          "name": "_numeroPermis",
          "type": "string"
        },
        {
          "internalType": "string",
          "name": "_contactTelephone",
          "type": "string"
        },
        {
          "internalType": "uint256",
          "name": "_dateNaissance",
          "type": "uint256"
        },
        {
          "internalType": "uint256",
          "name": "_dateEmbauche",
          "type": "uint256"
        },
        {
          "internalType": "address",
          "name": "_vehiculeId",
          "type": "address"
        }
      ],
      "name": "ajouterChauffeur",
      "outputs": [],
      "stateMutability": "nonpayable",
      "type": "function"
    },
    {
      "inputs": [
        {
          "internalType": "address",
          "name": "_id",
          "type": "address"
        },
        {
          "internalType": "string",
          "name": "_nom",
          "type": "string"
        },
        {
          "internalType": "string",
          "name": "_ville",
          "type": "string"
        },
        {
          "internalType": "string",
          "name": "_departement",
          "type": "string"
        },
        {
          "internalType": "string",
          "name": "_arrondissement",
          "type": "string"
        },
        {
          "internalType": "string",
          "name": "_zone",
          "type": "string"
        },
        {
          "internalType": "int256",
          "name": "_longitude",
          "type": "int256"
        },
        {
          "internalType": "int256",
          "name": "_latitude",
          "type": "int256"
        }
      ],
      "name": "ajouterCheckpoint",
      "outputs": [],
      "stateMutability": "nonpayable",
      "type": "function"
    },
    {
      "inputs": [
        {
          "internalType": "address",
          "name": "_id",
          "type": "address"
        },
        {
          "internalType": "string",
          "name": "_nomComplet",
          "type": "string"
        },
        {
          "internalType": "string",
          "name": "_adresse",
          "type": "string"
        },
        {
          "internalType": "string",
          "name": "_telephone",
          "type": "string"
        },
        {
          "internalType": "string",
          "name": "_email",
          "type": "string"
        },
        {
          "internalType": "string",
          "name": "_typeClient",
          "type": "string"
        },
        {
          "internalType": "string",
          "name": "_localisation",
          "type": "string"
        }
      ],
      "name": "ajouterClient",
      "outputs": [],
      "stateMutability": "nonpayable",
      "type": "function"
    },
    {
      "inputs": [
        {
          "internalType": "address",
          "name": "_id",
          "type": "address"
        },
        {
          "internalType": "string",
          "name": "_nom",
          "type": "string"
        },
        {
          "internalType": "string",
          "name": "_prenom",
          "type": "string"
        },
        {
          "internalType": "string",
          "name": "_poste",
          "type": "string"
        },
        {
          "internalType": "string",
          "name": "_contactTelephone",
          "type": "string"
        },
        {
          "internalType": "string",
          "name": "_email",
          "type": "string"
        },
        {
          "internalType": "uint256",
          "name": "_heuresService",
          "type": "uint256"
        }
      ],
      "name": "ajouterCollecteur",
      "outputs": [],
      "stateMutability": "nonpayable",
      "type": "function"
    },
    {
      "inputs": [
        {
          "internalType": "address",
          "name": "_id",
          "type": "address"
        },
        {
          "internalType": "string",
          "name": "_contenu",
          "type": "string"
        },
        {
          "internalType": "string",
          "name": "_taille",
          "type": "string"
        },
        {
          "internalType": "string",
          "name": "_couleur",
          "type": "string"
        },
        {
          "internalType": "string",
          "name": "_destination",
          "type": "string"
        },
        {
          "internalType": "string",
          "name": "_provenance",
          "type": "string"
        },
        {
          "internalType": "string",
          "name": "_etat",
          "type": "string"
        },
        {
          "internalType": "uint256",
          "name": "_dateExpedition",
          "type": "uint256"
        },
        {
          "internalType": "address",
          "name": "_clientId",
          "type": "address"
        },
        {
          "internalType": "address",
          "name": "_chauffeurId",
          "type": "address"
        }
      ],
      "name": "ajouterConteneur",
      "outputs": [],
      "stateMutability": "nonpayable",
      "type": "function"
    },
    {
      "inputs": [
        {
          "internalType": "address",
          "name": "_id",
          "type": "address"
        },
        {
          "internalType": "string",
          "name": "_nom",
          "type": "string"
        },
        {
          "internalType": "string",
          "name": "_prenom",
          "type": "string"
        },
        {
          "internalType": "string",
          "name": "_numeroAgent",
          "type": "string"
        },
        {
          "internalType": "string",
          "name": "_contactTelephone",
          "type": "string"
        },
        {
          "internalType": "string",
          "name": "_email",
          "type": "string"
        },
        {
          "internalType": "uint256",
          "name": "_heuresService",
          "type": "uint256"
        }
      ],
      "name": "ajouterControleur",
      "outputs": [],
      "stateMutability": "nonpayable",
      "type": "function"
    },
    {
      "inputs": [
        {
          "internalType": "address",
          "name": "_id",
          "type": "address"
        },
        {
          "internalType": "address[]",
          "name": "_checkpoints",
          "type": "address[]"
        },
        {
          "internalType": "uint256",
          "name": "_dateDebut",
          "type": "uint256"
        },
        {
          "internalType": "uint256",
          "name": "_dateFin",
          "type": "uint256"
        },
        {
          "internalType": "address",
          "name": "_conteneurId",
          "type": "address"
        },
        {
          "internalType": "address",
          "name": "_chauffeurId",
          "type": "address"
        }
      ],
      "name": "ajouterTrajet",
      "outputs": [],
      "stateMutability": "nonpayable",
      "type": "function"
    },
    {
      "inputs": [
        {
          "internalType": "address",
          "name": "_id",
          "type": "address"
        },
        {
          "internalType": "string",
          "name": "_plaqueImmatriculation",
          "type": "string"
        },
        {
          "internalType": "string",
          "name": "_marque",
          "type": "string"
        },
        {
          "internalType": "string",
          "name": "_modele",
          "type": "string"
        },
        {
          "internalType": "string",
          "name": "_taille",
          "type": "string"
        },
        {
          "internalType": "address",
          "name": "_chauffeurId",
          "type": "address"
        }
      ],
      "name": "ajouterVehicule",
      "outputs": [],
      "stateMutability": "nonpayable",
      "type": "function"
    },
    {
      "inputs": [
        {
          "internalType": "address",
          "name": "",
          "type": "address"
        }
      ],
      "name": "chauffeurs",
      "outputs": [
        {
          "internalType": "address",
          "name": "id",
          "type": "address"
        },
        {
          "internalType": "string",
          "name": "nom",
          "type": "string"
        },
        {
          "internalType": "string",
          "name": "prenom",
          "type": "string"
        },
        {
          "internalType": "string",
          "name": "numeroPermis",
          "type": "string"
        },
        {
          "internalType": "string",
          "name": "contactTelephone",
          "type": "string"
        },
        {
          "internalType": "uint256",
          "name": "dateNaissance",
          "type": "uint256"
        },
        {
          "internalType": "uint256",
          "name": "dateEmbauche",
          "type": "uint256"
        },
        {
          "internalType": "address",
          "name": "vehiculeId",
          "type": "address"
        }
      ],
      "stateMutability": "view",
      "type": "function"
    },
    {
      "inputs": [
        {
          "internalType": "address",
          "name": "",
          "type": "address"
        }
      ],
      "name": "checkpoints",
      "outputs": [
        {
          "internalType": "address",
          "name": "id",
          "type": "address"
        },
        {
          "internalType": "string",
          "name": "nom",
          "type": "string"
        },
        {
          "internalType": "string",
          "name": "ville",
          "type": "string"
        },
        {
          "internalType": "string",
          "name": "departement",
          "type": "string"
        },
        {
          "internalType": "string",
          "name": "arrondissement",
          "type": "string"
        },
        {
          "internalType": "string",
          "name": "zone",
          "type": "string"
        },
        {
          "internalType": "int256",
          "name": "longitude",
          "type": "int256"
        },
        {
          "internalType": "int256",
          "name": "latitude",
          "type": "int256"
        },
        {
          "internalType": "uint256",
          "name": "dateCreation",
          "type": "uint256"
        },
        {
          "internalType": "enum Lock.Etat_checkpoint",
          "name": "etat",
          "type": "uint8"
        }
      ],
      "stateMutability": "view",
      "type": "function"
    },
    {
      "inputs": [
        {
          "internalType": "address",
          "name": "",
          "type": "address"
        }
      ],
      "name": "clients",
      "outputs": [
        {
          "internalType": "address",
          "name": "id",
          "type": "address"
        },
        {
          "internalType": "string",
          "name": "nomComplet",
          "type": "string"
        },
        {
          "internalType": "string",
          "name": "adresse",
          "type": "string"
        },
        {
          "internalType": "string",
          "name": "telephone",
          "type": "string"
        },
        {
          "internalType": "string",
          "name": "email",
          "type": "string"
        },
        {
          "internalType": "string",
          "name": "typeClient",
          "type": "string"
        },
        {
          "internalType": "string",
          "name": "localisation",
          "type": "string"
        },
        {
          "internalType": "uint256",
          "name": "dateEnregistrement",
          "type": "uint256"
        }
      ],
      "stateMutability": "view",
      "type": "function"
    },
    {
      "inputs": [
        {
          "internalType": "address",
          "name": "",
          "type": "address"
        }
      ],
      "name": "collecteurs",
      "outputs": [
        {
          "internalType": "address",
          "name": "id",
          "type": "address"
        },
        {
          "internalType": "string",
          "name": "nom",
          "type": "string"
        },
        {
          "internalType": "string",
          "name": "prenom",
          "type": "string"
        },
        {
          "internalType": "string",
          "name": "poste",
          "type": "string"
        },
        {
          "internalType": "string",
          "name": "contactTelephone",
          "type": "string"
        },
        {
          "internalType": "string",
          "name": "email",
          "type": "string"
        },
        {
          "internalType": "uint256",
          "name": "heuresService",
          "type": "uint256"
        }
      ],
      "stateMutability": "view",
      "type": "function"
    },
    {
      "inputs": [
        {
          "internalType": "address",
          "name": "",
          "type": "address"
        }
      ],
      "name": "conteneurs",
      "outputs": [
        {
          "internalType": "address",
          "name": "id",
          "type": "address"
        },
        {
          "internalType": "string",
          "name": "contenu",
          "type": "string"
        },
        {
          "internalType": "string",
          "name": "taille",
          "type": "string"
        },
        {
          "internalType": "string",
          "name": "couleur",
          "type": "string"
        },
        {
          "internalType": "string",
          "name": "destination",
          "type": "string"
        },
        {
          "internalType": "string",
          "name": "provenance",
          "type": "string"
        },
        {
          "internalType": "string",
          "name": "etat",
          "type": "string"
        },
        {
          "internalType": "uint256",
          "name": "dateExpedition",
          "type": "uint256"
        },
        {
          "internalType": "address",
          "name": "clientId",
          "type": "address"
        },
        {
          "internalType": "address",
          "name": "chauffeurId",
          "type": "address"
        }
      ],
      "stateMutability": "view",
      "type": "function"
    },
    {
      "inputs": [
        {
          "internalType": "address",
          "name": "",
          "type": "address"
        }
      ],
      "name": "controleurs",
      "outputs": [
        {
          "internalType": "address",
          "name": "id",
          "type": "address"
        },
        {
          "internalType": "string",
          "name": "nom",
          "type": "string"
        },
        {
          "internalType": "string",
          "name": "prenom",
          "type": "string"
        },
        {
          "internalType": "string",
          "name": "numeroAgent",
          "type": "string"
        },
        {
          "internalType": "string",
          "name": "contactTelephone",
          "type": "string"
        },
        {
          "internalType": "string",
          "name": "email",
          "type": "string"
        },
        {
          "internalType": "uint256",
          "name": "heuresService",
          "type": "uint256"
        }
      ],
      "stateMutability": "view",
      "type": "function"
    },
    {
      "inputs": [
        {
          "internalType": "address",
          "name": "_checkpointId",
          "type": "address"
        },
        {
          "internalType": "enum Lock.Etat_checkpoint",
          "name": "_nouvelEtat",
          "type": "uint8"
        }
      ],
      "name": "modifierEtatCheckpoint",
      "outputs": [],
      "stateMutability": "nonpayable",
      "type": "function"
    },
    {
      "inputs": [
        {
          "internalType": "address",
          "name": "",
          "type": "address"
        }
      ],
      "name": "trajets",
      "outputs": [
        {
          "internalType": "address",
          "name": "id",
          "type": "address"
        },
        {
          "internalType": "uint256",
          "name": "dateDebut",
          "type": "uint256"
        },
        {
          "internalType": "uint256",
          "name": "dateFin",
          "type": "uint256"
        },
        {
          "internalType": "address",
          "name": "conteneurId",
          "type": "address"
        },
        {
          "internalType": "address",
          "name": "chauffeurId",
          "type": "address"
        }
      ],
      "stateMutability": "view",
      "type": "function"
    },
    {
      "inputs": [
        {
          "internalType": "address",
          "name": "",
          "type": "address"
        }
      ],
      "name": "vehicules",
      "outputs": [
        {
          "internalType": "address",
          "name": "id",
          "type": "address"
        },
        {
          "internalType": "string",
          "name": "plaqueImmatriculation",
          "type": "string"
        },
        {
          "internalType": "string",
          "name": "marque",
          "type": "string"
        },
        {
          "internalType": "string",
          "name": "modele",
          "type": "string"
        },
        {
          "internalType": "string",
          "name": "taille",
          "type": "string"
        },
        {
          "internalType": "address",
          "name": "chauffeurId",
          "type": "address"
        }
      ],
      "stateMutability": "view",
      "type": "function"
    }
  ],
  "bytecode": "0x6080604052348015600f57600080fd5b50613c578061001f6000396000f3fe608060405234801561001057600080fd5b506004361061010b5760003560e01c806361eed2a9116100a257806391851e521161007157806391851e52146102e3578063b94201f8146102ff578063dbb51d6e14610336578063eb185c2d1461036f578063fcdd8cc7146103a55761010b565b806361eed2a91461023b5780636376a837146102725780636cc895c0146102ab5780638b94446c146102c75761010b565b806340ffaaaa116100de57806340ffaaaa146101b25780634c383d65146101ce5780634e6d7aa5146101ea5780635be66681146102065761010b565b806310e4ac4314610110578063172c793b146101445780631cd04aa4146101605780631f72dfc414610196575b600080fd5b61012a600480360381019061012591906128de565b6103c1565b60405161013b959493929190612933565b60405180910390f35b61015e60048036038101906101599190612acc565b610457565b005b61017a600480360381019061017591906128de565b6105c7565b60405161018d9796959493929190612c95565b60405180910390f35b6101b060048036038101906101ab9190612d4c565b6108d1565b005b6101cc60048036038101906101c79190612db8565b61093e565b005b6101e860048036038101906101e39190612db8565b610a91565b005b61020460048036038101906101ff9190612f1c565b610be4565b005b610220600480360381019061021b91906128de565b610da3565b6040516102329695949392919061305e565b60405180910390f35b610255600480360381019061025091906128de565b61103f565b6040516102699897969594939291906130db565b60405180910390f35b61028c600480360381019061028791906128de565b6113d7565b6040516102a29a99989796959493929190613183565b60405180910390f35b6102c560048036038101906102c09190613249565b6117bb565b005b6102e160048036038101906102dc9190613346565b611944565b005b6102fd60048036038101906102f891906134cd565b611b7f565b005b610319600480360381019061031491906128de565b611d2b565b60405161032d9897969594939291906135f3565b60405180910390f35b610350600480360381019061034b91906128de565b611fd3565b6040516103669a99989796959493929190613713565b60405180910390f35b610389600480360381019061038491906128de565b6122fc565b60405161039c9796959493929190612c95565b60405180910390f35b6103bf60048036038101906103ba919061389a565b612606565b005b60076020528060005260406000206000915090508060000160009054906101000a900473ffffffffffffffffffffffffffffffffffffffff16908060020154908060030154908060040160009054906101000a900473ffffffffffffffffffffffffffffffffffffffff16908060050160009054906101000a900473ffffffffffffffffffffffffffffffffffffffff16905085565b6040518061010001604052808873ffffffffffffffffffffffffffffffffffffffff16815260200187815260200186815260200185815260200184815260200183815260200182815260200142815250600360008973ffffffffffffffffffffffffffffffffffffffff1673ffffffffffffffffffffffffffffffffffffffff16815260200190815260200160002060008201518160000160006101000a81548173ffffffffffffffffffffffffffffffffffffffff021916908373ffffffffffffffffffffffffffffffffffffffff16021790555060208201518160010190816105429190613b4f565b5060408201518160020190816105589190613b4f565b50606082015181600301908161056e9190613b4f565b5060808201518160040190816105849190613b4f565b5060a082015181600501908161059a9190613b4f565b5060c08201518160060190816105b09190613b4f565b5060e0820151816007015590505050505050505050565b60056020528060005260406000206000915090508060000160009054906101000a900473ffffffffffffffffffffffffffffffffffffffff169080600101805461061090613972565b80601f016020809104026020016040519081016040528092919081815260200182805461063c90613972565b80156106895780601f1061065e57610100808354040283529160200191610689565b820191906000526020600020905b81548152906001019060200180831161066c57829003601f168201915b50505050509080600201805461069e90613972565b80601f01602080910402602001604051908101604052809291908181526020018280546106ca90613972565b80156107175780601f106106ec57610100808354040283529160200191610717565b820191906000526020600020905b8154815290600101906020018083116106fa57829003601f168201915b50505050509080600301805461072c90613972565b80601f016020809104026020016040519081016040528092919081815260200182805461075890613972565b80156107a55780601f1061077a576101008083540402835291602001916107a5565b820191906000526020600020905b81548152906001019060200180831161078857829003601f168201915b5050505050908060040180546107ba90613972565b80601f01602080910402602001604051908101604052809291908181526020018280546107e690613972565b80156108335780601f1061080857610100808354040283529160200191610833565b820191906000526020600020905b81548152906001019060200180831161081657829003601f168201915b50505050509080600501805461084890613972565b80601f016020809104026020016040519081016040528092919081815260200182805461087490613972565b80156108c15780601f10610896576101008083540402835291602001916108c1565b820191906000526020600020905b8154815290600101906020018083116108a457829003601f168201915b5050505050908060060154905087565b806000808473ffffffffffffffffffffffffffffffffffffffff1673ffffffffffffffffffffffffffffffffffffffff16815260200190815260200160002060090160006101000a81548160ff021916908360018111156109355761093461369c565b5b02179055505050565b6040518060e001604052808873ffffffffffffffffffffffffffffffffffffffff16815260200187815260200186815260200185815260200184815260200183815260200182815250600460008973ffffffffffffffffffffffffffffffffffffffff1673ffffffffffffffffffffffffffffffffffffffff16815260200190815260200160002060008201518160000160006101000a81548173ffffffffffffffffffffffffffffffffffffffff021916908373ffffffffffffffffffffffffffffffffffffffff1602179055506020820151816001019081610a229190613b4f565b506040820151816002019081610a389190613b4f565b506060820151816003019081610a4e9190613b4f565b506080820151816004019081610a649190613b4f565b5060a0820151816005019081610a7a9190613b4f565b5060c0820151816006015590505050505050505050565b6040518060e001604052808873ffffffffffffffffffffffffffffffffffffffff16815260200187815260200186815260200185815260200184815260200183815260200182815250600560008973ffffffffffffffffffffffffffffffffffffffff1673ffffffffffffffffffffffffffffffffffffffff16815260200190815260200160002060008201518160000160006101000a81548173ffffffffffffffffffffffffffffffffffffffff021916908373ffffffffffffffffffffffffffffffffffffffff1602179055506020820151816001019081610b759190613b4f565b506040820151816002019081610b8b9190613b4f565b506060820151816003019081610ba19190613b4f565b506080820151816004019081610bb79190613b4f565b5060a0820151816005019081610bcd9190613b4f565b5060c0820151816006015590505050505050505050565b6040518061014001604052808973ffffffffffffffffffffffffffffffffffffffff16815260200188815260200187815260200186815260200185815260200184815260200183815260200182815260200142815260200160006001811115610c5057610c4f61369c565b5b8152506000808a73ffffffffffffffffffffffffffffffffffffffff1673ffffffffffffffffffffffffffffffffffffffff16815260200190815260200160002060008201518160000160006101000a81548173ffffffffffffffffffffffffffffffffffffffff021916908373ffffffffffffffffffffffffffffffffffffffff1602179055506020820151816001019081610ced9190613b4f565b506040820151816002019081610d039190613b4f565b506060820151816003019081610d199190613b4f565b506080820151816004019081610d2f9190613b4f565b5060a0820151816005019081610d459190613b4f565b5060c0820151816006015560e0820151816007015561010082015181600801556101208201518160090160006101000a81548160ff02191690836001811115610d9157610d9061369c565b5b02179055509050505050505050505050565b60066020528060005260406000206000915090508060000160009054906101000a900473ffffffffffffffffffffffffffffffffffffffff1690806001018054610dec90613972565b80601f0160208091040260200160405190810160405280929190818152602001828054610e1890613972565b8015610e655780601f10610e3a57610100808354040283529160200191610e65565b820191906000526020600020905b815481529060010190602001808311610e4857829003601f168201915b505050505090806002018054610e7a90613972565b80601f0160208091040260200160405190810160405280929190818152602001828054610ea690613972565b8015610ef35780601f10610ec857610100808354040283529160200191610ef3565b820191906000526020600020905b815481529060010190602001808311610ed657829003601f168201915b505050505090806003018054610f0890613972565b80601f0160208091040260200160405190810160405280929190818152602001828054610f3490613972565b8015610f815780601f10610f5657610100808354040283529160200191610f81565b820191906000526020600020905b815481529060010190602001808311610f6457829003601f168201915b505050505090806004018054610f9690613972565b80601f0160208091040260200160405190810160405280929190818152602001828054610fc290613972565b801561100f5780601f10610fe45761010080835404028352916020019161100f565b820191906000526020600020905b815481529060010190602001808311610ff257829003601f168201915b5050505050908060050160009054906101000a900473ffffffffffffffffffffffffffffffffffffffff16905086565b60036020528060005260406000206000915090508060000160009054906101000a900473ffffffffffffffffffffffffffffffffffffffff169080600101805461108890613972565b80601f01602080910402602001604051908101604052809291908181526020018280546110b490613972565b80156111015780601f106110d657610100808354040283529160200191611101565b820191906000526020600020905b8154815290600101906020018083116110e457829003601f168201915b50505050509080600201805461111690613972565b80601f016020809104026020016040519081016040528092919081815260200182805461114290613972565b801561118f5780601f106111645761010080835404028352916020019161118f565b820191906000526020600020905b81548152906001019060200180831161117257829003601f168201915b5050505050908060030180546111a490613972565b80601f01602080910402602001604051908101604052809291908181526020018280546111d090613972565b801561121d5780601f106111f25761010080835404028352916020019161121d565b820191906000526020600020905b81548152906001019060200180831161120057829003601f168201915b50505050509080600401805461123290613972565b80601f016020809104026020016040519081016040528092919081815260200182805461125e90613972565b80156112ab5780601f10611280576101008083540402835291602001916112ab565b820191906000526020600020905b81548152906001019060200180831161128e57829003601f168201915b5050505050908060050180546112c090613972565b80601f01602080910402602001604051908101604052809291908181526020018280546112ec90613972565b80156113395780601f1061130e57610100808354040283529160200191611339565b820191906000526020600020905b81548152906001019060200180831161131c57829003601f168201915b50505050509080600601805461134e90613972565b80601f016020809104026020016040519081016040528092919081815260200182805461137a90613972565b80156113c75780601f1061139c576101008083540402835291602001916113c7565b820191906000526020600020905b8154815290600101906020018083116113aa57829003601f168201915b5050505050908060070154905088565b60016020528060005260406000206000915090508060000160009054906101000a900473ffffffffffffffffffffffffffffffffffffffff169080600101805461142090613972565b80601f016020809104026020016040519081016040528092919081815260200182805461144c90613972565b80156114995780601f1061146e57610100808354040283529160200191611499565b820191906000526020600020905b81548152906001019060200180831161147c57829003601f168201915b5050505050908060020180546114ae90613972565b80601f01602080910402602001604051908101604052809291908181526020018280546114da90613972565b80156115275780601f106114fc57610100808354040283529160200191611527565b820191906000526020600020905b81548152906001019060200180831161150a57829003601f168201915b50505050509080600301805461153c90613972565b80601f016020809104026020016040519081016040528092919081815260200182805461156890613972565b80156115b55780601f1061158a576101008083540402835291602001916115b5565b820191906000526020600020905b81548152906001019060200180831161159857829003601f168201915b5050505050908060040180546115ca90613972565b80601f01602080910402602001604051908101604052809291908181526020018280546115f690613972565b80156116435780601f1061161857610100808354040283529160200191611643565b820191906000526020600020905b81548152906001019060200180831161162657829003601f168201915b50505050509080600501805461165890613972565b80601f016020809104026020016040519081016040528092919081815260200182805461168490613972565b80156116d15780601f106116a6576101008083540402835291602001916116d1565b820191906000526020600020905b8154815290600101906020018083116116b457829003601f168201915b5050505050908060060180546116e690613972565b80601f016020809104026020016040519081016040528092919081815260200182805461171290613972565b801561175f5780601f106117345761010080835404028352916020019161175f565b820191906000526020600020905b81548152906001019060200180831161174257829003601f168201915b5050505050908060070154908060080160009054906101000a900473ffffffffffffffffffffffffffffffffffffffff16908060090160009054906101000a900473ffffffffffffffffffffffffffffffffffffffff1690508a565b6040518060c001604052808773ffffffffffffffffffffffffffffffffffffffff1681526020018681526020018581526020018481526020018381526020018273ffffffffffffffffffffffffffffffffffffffff16815250600660008873ffffffffffffffffffffffffffffffffffffffff1673ffffffffffffffffffffffffffffffffffffffff16815260200190815260200160002060008201518160000160006101000a81548173ffffffffffffffffffffffffffffffffffffffff021916908373ffffffffffffffffffffffffffffffffffffffff16021790555060208201518160010190816118af9190613b4f565b5060408201518160020190816118c59190613b4f565b5060608201518160030190816118db9190613b4f565b5060808201518160040190816118f19190613b4f565b5060a08201518160050160006101000a81548173ffffffffffffffffffffffffffffffffffffffff021916908373ffffffffffffffffffffffffffffffffffffffff160217905550905050505050505050565b6040518061014001604052808b73ffffffffffffffffffffffffffffffffffffffff1681526020018a81526020018981526020018881526020018781526020018681526020018581526020018481526020018373ffffffffffffffffffffffffffffffffffffffff1681526020018273ffffffffffffffffffffffffffffffffffffffff16815250600160008c73ffffffffffffffffffffffffffffffffffffffff1673ffffffffffffffffffffffffffffffffffffffff16815260200190815260200160002060008201518160000160006101000a81548173ffffffffffffffffffffffffffffffffffffffff021916908373ffffffffffffffffffffffffffffffffffffffff1602179055506020820151816001019081611a679190613b4f565b506040820151816002019081611a7d9190613b4f565b506060820151816003019081611a939190613b4f565b506080820151816004019081611aa99190613b4f565b5060a0820151816005019081611abf9190613b4f565b5060c0820151816006019081611ad59190613b4f565b5060e082015181600701556101008201518160080160006101000a81548173ffffffffffffffffffffffffffffffffffffffff021916908373ffffffffffffffffffffffffffffffffffffffff1602179055506101208201518160090160006101000a81548173ffffffffffffffffffffffffffffffffffffffff021916908373ffffffffffffffffffffffffffffffffffffffff16021790555090505050505050505050505050565b6040518061010001604052808973ffffffffffffffffffffffffffffffffffffffff1681526020018881526020018781526020018681526020018581526020018481526020018381526020018273ffffffffffffffffffffffffffffffffffffffff16815250600260008a73ffffffffffffffffffffffffffffffffffffffff1673ffffffffffffffffffffffffffffffffffffffff16815260200190815260200160002060008201518160000160006101000a81548173ffffffffffffffffffffffffffffffffffffffff021916908373ffffffffffffffffffffffffffffffffffffffff1602179055506020820151816001019081611c809190613b4f565b506040820151816002019081611c969190613b4f565b506060820151816003019081611cac9190613b4f565b506080820151816004019081611cc29190613b4f565b5060a0820151816005015560c0820151816006015560e08201518160070160006101000a81548173ffffffffffffffffffffffffffffffffffffffff021916908373ffffffffffffffffffffffffffffffffffffffff1602179055509050505050505050505050565b60026020528060005260406000206000915090508060000160009054906101000a900473ffffffffffffffffffffffffffffffffffffffff1690806001018054611d7490613972565b80601f0160208091040260200160405190810160405280929190818152602001828054611da090613972565b8015611ded5780601f10611dc257610100808354040283529160200191611ded565b820191906000526020600020905b815481529060010190602001808311611dd057829003601f168201915b505050505090806002018054611e0290613972565b80601f0160208091040260200160405190810160405280929190818152602001828054611e2e90613972565b8015611e7b5780601f10611e5057610100808354040283529160200191611e7b565b820191906000526020600020905b815481529060010190602001808311611e5e57829003601f168201915b505050505090806003018054611e9090613972565b80601f0160208091040260200160405190810160405280929190818152602001828054611ebc90613972565b8015611f095780601f10611ede57610100808354040283529160200191611f09565b820191906000526020600020905b815481529060010190602001808311611eec57829003601f168201915b505050505090806004018054611f1e90613972565b80601f0160208091040260200160405190810160405280929190818152602001828054611f4a90613972565b8015611f975780601f10611f6c57610100808354040283529160200191611f97565b820191906000526020600020905b815481529060010190602001808311611f7a57829003601f168201915b5050505050908060050154908060060154908060070160009054906101000a900473ffffffffffffffffffffffffffffffffffffffff16905088565b60006020528060005260406000206000915090508060000160009054906101000a900473ffffffffffffffffffffffffffffffffffffffff169080600101805461201c90613972565b80601f016020809104026020016040519081016040528092919081815260200182805461204890613972565b80156120955780601f1061206a57610100808354040283529160200191612095565b820191906000526020600020905b81548152906001019060200180831161207857829003601f168201915b5050505050908060020180546120aa90613972565b80601f01602080910402602001604051908101604052809291908181526020018280546120d690613972565b80156121235780601f106120f857610100808354040283529160200191612123565b820191906000526020600020905b81548152906001019060200180831161210657829003601f168201915b50505050509080600301805461213890613972565b80601f016020809104026020016040519081016040528092919081815260200182805461216490613972565b80156121b15780601f10612186576101008083540402835291602001916121b1565b820191906000526020600020905b81548152906001019060200180831161219457829003601f168201915b5050505050908060040180546121c690613972565b80601f01602080910402602001604051908101604052809291908181526020018280546121f290613972565b801561223f5780601f106122145761010080835404028352916020019161223f565b820191906000526020600020905b81548152906001019060200180831161222257829003601f168201915b50505050509080600501805461225490613972565b80601f016020809104026020016040519081016040528092919081815260200182805461228090613972565b80156122cd5780601f106122a2576101008083540402835291602001916122cd565b820191906000526020600020905b8154815290600101906020018083116122b057829003601f168201915b5050505050908060060154908060070154908060080154908060090160009054906101000a900460ff1690508a565b60046020528060005260406000206000915090508060000160009054906101000a900473ffffffffffffffffffffffffffffffffffffffff169080600101805461234590613972565b80601f016020809104026020016040519081016040528092919081815260200182805461237190613972565b80156123be5780601f10612393576101008083540402835291602001916123be565b820191906000526020600020905b8154815290600101906020018083116123a157829003601f168201915b5050505050908060020180546123d390613972565b80601f01602080910402602001604051908101604052809291908181526020018280546123ff90613972565b801561244c5780601f106124215761010080835404028352916020019161244c565b820191906000526020600020905b81548152906001019060200180831161242f57829003601f168201915b50505050509080600301805461246190613972565b80601f016020809104026020016040519081016040528092919081815260200182805461248d90613972565b80156124da5780601f106124af576101008083540402835291602001916124da565b820191906000526020600020905b8154815290600101906020018083116124bd57829003601f168201915b5050505050908060040180546124ef90613972565b80601f016020809104026020016040519081016040528092919081815260200182805461251b90613972565b80156125685780601f1061253d57610100808354040283529160200191612568565b820191906000526020600020905b81548152906001019060200180831161254b57829003601f168201915b50505050509080600501805461257d90613972565b80601f01602080910402602001604051908101604052809291908181526020018280546125a990613972565b80156125f65780601f106125cb576101008083540402835291602001916125f6565b820191906000526020600020905b8154815290600101906020018083116125d957829003601f168201915b5050505050908060060154905087565b6040518060c001604052808773ffffffffffffffffffffffffffffffffffffffff1681526020018681526020018581526020018481526020018373ffffffffffffffffffffffffffffffffffffffff1681526020018273ffffffffffffffffffffffffffffffffffffffff16815250600760008873ffffffffffffffffffffffffffffffffffffffff1673ffffffffffffffffffffffffffffffffffffffff16815260200190815260200160002060008201518160000160006101000a81548173ffffffffffffffffffffffffffffffffffffffff021916908373ffffffffffffffffffffffffffffffffffffffff16021790555060208201518160010190805190602001906127179291906127c5565b50604082015181600201556060820151816003015560808201518160040160006101000a81548173ffffffffffffffffffffffffffffffffffffffff021916908373ffffffffffffffffffffffffffffffffffffffff16021790555060a08201518160050160006101000a81548173ffffffffffffffffffffffffffffffffffffffff021916908373ffffffffffffffffffffffffffffffffffffffff160217905550905050505050505050565b82805482825590600052602060002090810192821561283e579160200282015b8281111561283d5782518260006101000a81548173ffffffffffffffffffffffffffffffffffffffff021916908373ffffffffffffffffffffffffffffffffffffffff160217905550916020019190600101906127e5565b5b50905061284b919061284f565b5090565b5b80821115612868576000816000905550600101612850565b5090565b6000604051905090565b600080fd5b600080fd5b600073ffffffffffffffffffffffffffffffffffffffff82169050919050565b60006128ab82612880565b9050919050565b6128bb816128a0565b81146128c657600080fd5b50565b6000813590506128d8816128b2565b92915050565b6000602082840312156128f4576128f3612876565b5b6000612902848285016128c9565b91505092915050565b612914816128a0565b82525050565b6000819050919050565b61292d8161291a565b82525050565b600060a082019050612948600083018861290b565b6129556020830187612924565b6129626040830186612924565b61296f606083018561290b565b61297c608083018461290b565b9695505050505050565b600080fd5b600080fd5b6000601f19601f8301169050919050565b7f4e487b7100000000000000000000000000000000000000000000000000000000600052604160045260246000fd5b6129d982612990565b810181811067ffffffffffffffff821117156129f8576129f76129a1565b5b80604052505050565b6000612a0b61286c565b9050612a1782826129d0565b919050565b600067ffffffffffffffff821115612a3757612a366129a1565b5b612a4082612990565b9050602081019050919050565b82818337600083830152505050565b6000612a6f612a6a84612a1c565b612a01565b905082815260208101848484011115612a8b57612a8a61298b565b5b612a96848285612a4d565b509392505050565b600082601f830112612ab357612ab2612986565b5b8135612ac3848260208601612a5c565b91505092915050565b600080600080600080600060e0888a031215612aeb57612aea612876565b5b6000612af98a828b016128c9565b975050602088013567ffffffffffffffff811115612b1a57612b1961287b565b5b612b268a828b01612a9e565b965050604088013567ffffffffffffffff811115612b4757612b4661287b565b5b612b538a828b01612a9e565b955050606088013567ffffffffffffffff811115612b7457612b7361287b565b5b612b808a828b01612a9e565b945050608088013567ffffffffffffffff811115612ba157612ba061287b565b5b612bad8a828b01612a9e565b93505060a088013567ffffffffffffffff811115612bce57612bcd61287b565b5b612bda8a828b01612a9e565b92505060c088013567ffffffffffffffff811115612bfb57612bfa61287b565b5b612c078a828b01612a9e565b91505092959891949750929550565b600081519050919050565b600082825260208201905092915050565b60005b83811015612c50578082015181840152602081019050612c35565b60008484015250505050565b6000612c6782612c16565b612c718185612c21565b9350612c81818560208601612c32565b612c8a81612990565b840191505092915050565b600060e082019050612caa600083018a61290b565b8181036020830152612cbc8189612c5c565b90508181036040830152612cd08188612c5c565b90508181036060830152612ce48187612c5c565b90508181036080830152612cf88186612c5c565b905081810360a0830152612d0c8185612c5c565b9050612d1b60c0830184612924565b98975050505050505050565b60028110612d3457600080fd5b50565b600081359050612d4681612d27565b92915050565b60008060408385031215612d6357612d62612876565b5b6000612d71858286016128c9565b9250506020612d8285828601612d37565b9150509250929050565b612d958161291a565b8114612da057600080fd5b50565b600081359050612db281612d8c565b92915050565b600080600080600080600060e0888a031215612dd757612dd6612876565b5b6000612de58a828b016128c9565b975050602088013567ffffffffffffffff811115612e0657612e0561287b565b5b612e128a828b01612a9e565b965050604088013567ffffffffffffffff811115612e3357612e3261287b565b5b612e3f8a828b01612a9e565b955050606088013567ffffffffffffffff811115612e6057612e5f61287b565b5b612e6c8a828b01612a9e565b945050608088013567ffffffffffffffff811115612e8d57612e8c61287b565b5b612e998a828b01612a9e565b93505060a088013567ffffffffffffffff811115612eba57612eb961287b565b5b612ec68a828b01612a9e565b92505060c0612ed78a828b01612da3565b91505092959891949750929550565b6000819050919050565b612ef981612ee6565b8114612f0457600080fd5b50565b600081359050612f1681612ef0565b92915050565b600080600080600080600080610100898b031215612f3d57612f3c612876565b5b6000612f4b8b828c016128c9565b985050602089013567ffffffffffffffff811115612f6c57612f6b61287b565b5b612f788b828c01612a9e565b975050604089013567ffffffffffffffff811115612f9957612f9861287b565b5b612fa58b828c01612a9e565b965050606089013567ffffffffffffffff811115612fc657612fc561287b565b5b612fd28b828c01612a9e565b955050608089013567ffffffffffffffff811115612ff357612ff261287b565b5b612fff8b828c01612a9e565b94505060a089013567ffffffffffffffff8111156130205761301f61287b565b5b61302c8b828c01612a9e565b93505060c061303d8b828c01612f07565b92505060e061304e8b828c01612f07565b9150509295985092959890939650565b600060c082019050613073600083018961290b565b81810360208301526130858188612c5c565b905081810360408301526130998187612c5c565b905081810360608301526130ad8186612c5c565b905081810360808301526130c18185612c5c565b90506130d060a083018461290b565b979650505050505050565b6000610100820190506130f1600083018b61290b565b8181036020830152613103818a612c5c565b905081810360408301526131178189612c5c565b9050818103606083015261312b8188612c5c565b9050818103608083015261313f8187612c5c565b905081810360a08301526131538186612c5c565b905081810360c08301526131678185612c5c565b905061317660e0830184612924565b9998505050505050505050565b600061014082019050613199600083018d61290b565b81810360208301526131ab818c612c5c565b905081810360408301526131bf818b612c5c565b905081810360608301526131d3818a612c5c565b905081810360808301526131e78189612c5c565b905081810360a08301526131fb8188612c5c565b905081810360c083015261320f8187612c5c565b905061321e60e0830186612924565b61322c61010083018561290b565b61323a61012083018461290b565b9b9a5050505050505050505050565b60008060008060008060c0878903121561326657613265612876565b5b600061327489828a016128c9565b965050602087013567ffffffffffffffff8111156132955761329461287b565b5b6132a189828a01612a9e565b955050604087013567ffffffffffffffff8111156132c2576132c161287b565b5b6132ce89828a01612a9e565b945050606087013567ffffffffffffffff8111156132ef576132ee61287b565b5b6132fb89828a01612a9e565b935050608087013567ffffffffffffffff81111561331c5761331b61287b565b5b61332889828a01612a9e565b92505060a061333989828a016128c9565b9150509295509295509295565b6000806000806000806000806000806101408b8d03121561336a57613369612876565b5b60006133788d828e016128c9565b9a505060208b013567ffffffffffffffff8111156133995761339861287b565b5b6133a58d828e01612a9e565b99505060408b013567ffffffffffffffff8111156133c6576133c561287b565b5b6133d28d828e01612a9e565b98505060608b013567ffffffffffffffff8111156133f3576133f261287b565b5b6133ff8d828e01612a9e565b97505060808b013567ffffffffffffffff8111156134205761341f61287b565b5b61342c8d828e01612a9e565b96505060a08b013567ffffffffffffffff81111561344d5761344c61287b565b5b6134598d828e01612a9e565b95505060c08b013567ffffffffffffffff81111561347a5761347961287b565b5b6134868d828e01612a9e565b94505060e06134978d828e01612da3565b9350506101006134a98d828e016128c9565b9250506101206134bb8d828e016128c9565b9150509295989b9194979a5092959850565b600080600080600080600080610100898b0312156134ee576134ed612876565b5b60006134fc8b828c016128c9565b985050602089013567ffffffffffffffff81111561351d5761351c61287b565b5b6135298b828c01612a9e565b975050604089013567ffffffffffffffff81111561354a5761354961287b565b5b6135568b828c01612a9e565b965050606089013567ffffffffffffffff8111156135775761357661287b565b5b6135838b828c01612a9e565b955050608089013567ffffffffffffffff8111156135a4576135a361287b565b5b6135b08b828c01612a9e565b94505060a06135c18b828c01612da3565b93505060c06135d28b828c01612da3565b92505060e06135e38b828c016128c9565b9150509295985092959890939650565b600061010082019050613609600083018b61290b565b818103602083015261361b818a612c5c565b9050818103604083015261362f8189612c5c565b905081810360608301526136438188612c5c565b905081810360808301526136578187612c5c565b905061366660a0830186612924565b61367360c0830185612924565b61368060e083018461290b565b9998505050505050505050565b61369681612ee6565b82525050565b7f4e487b7100000000000000000000000000000000000000000000000000000000600052602160045260246000fd5b600281106136dc576136db61369c565b5b50565b60008190506136ed826136cb565b919050565b60006136fd826136df565b9050919050565b61370d816136f2565b82525050565b600061014082019050613729600083018d61290b565b818103602083015261373b818c612c5c565b9050818103604083015261374f818b612c5c565b90508181036060830152613763818a612c5c565b905081810360808301526137778189612c5c565b905081810360a083015261378b8188612c5c565b905061379a60c083018761368d565b6137a760e083018661368d565b6137b5610100830185612924565b6137c3610120830184613704565b9b9a5050505050505050505050565b600067ffffffffffffffff8211156137ed576137ec6129a1565b5b602082029050602081019050919050565b600080fd5b6000613816613811846137d2565b612a01565b90508083825260208201905060208402830185811115613839576138386137fe565b5b835b81811015613862578061384e88826128c9565b84526020840193505060208101905061383b565b5050509392505050565b600082601f83011261388157613880612986565b5b8135613891848260208601613803565b91505092915050565b60008060008060008060c087890312156138b7576138b6612876565b5b60006138c589828a016128c9565b965050602087013567ffffffffffffffff8111156138e6576138e561287b565b5b6138f289828a0161386c565b955050604061390389828a01612da3565b945050606061391489828a01612da3565b935050608061392589828a016128c9565b92505060a061393689828a016128c9565b9150509295509295509295565b7f4e487b7100000000000000000000000000000000000000000000000000000000600052602260045260246000fd5b6000600282049050600182168061398a57607f821691505b60208210810361399d5761399c613943565b5b50919050565b60008190508160005260206000209050919050565b60006020601f8301049050919050565b600082821b905092915050565b600060088302613a057fffffffffffffffffffffffffffffffffffffffffffffffffffffffffffffffff826139c8565b613a0f86836139c8565b95508019841693508086168417925050509392505050565b6000819050919050565b6000613a4c613a47613a428461291a565b613a27565b61291a565b9050919050565b6000819050919050565b613a6683613a31565b613a7a613a7282613a53565b8484546139d5565b825550505050565b600090565b613a8f613a82565b613a9a818484613a5d565b505050565b5b81811015613abe57613ab3600082613a87565b600181019050613aa0565b5050565b601f821115613b0357613ad4816139a3565b613add846139b8565b81016020851015613aec578190505b613b00613af8856139b8565b830182613a9f565b50505b505050565b600082821c905092915050565b6000613b2660001984600802613b08565b1980831691505092915050565b6000613b3f8383613b15565b9150826002028217905092915050565b613b5882612c16565b67ffffffffffffffff811115613b7157613b706129a1565b5b613b7b8254613972565b613b86828285613ac2565b600060209050601f831160018114613bb95760008415613ba7578287015190505b613bb18582613b33565b865550613c19565b601f198416613bc7866139a3565b60005b82811015613bef57848901518255600182019150602085019450602081019050613bca565b86831015613c0c5784890151613c08601f891682613b15565b8355505b6001600288020188555050505b50505050505056fea264697066735822122003f1441ba217bb0e2b01531d73a2a33b3e2d7d7e3f9b0d88ae8d5c666718d43564736f6c634300081b0033",
  "linkReferences": {},
  "deployedLinkReferences": {}
}